{
  "_format": "hh-sol-artifact-1",
  "contractName": "NFTWinnerTicket",
  "sourceName": "contracts/NFTWinnerTicket.sol",
  "abi": [
    {
      "inputs": [],
      "stateMutability": "nonpayable",
      "type": "constructor"
    },
    {
      "anonymous": false,
      "inputs": [
        {
          "indexed": true,
          "internalType": "address",
          "name": "owner",
          "type": "address"
        },
        {
          "indexed": true,
          "internalType": "address",
          "name": "approved",
          "type": "address"
        },
        {
          "indexed": true,
          "internalType": "uint256",
          "name": "tokenId",
          "type": "uint256"
        }
      ],
      "name": "Approval",
      "type": "event"
    },
    {
      "anonymous": false,
      "inputs": [
        {
          "indexed": true,
          "internalType": "address",
          "name": "owner",
          "type": "address"
        },
        {
          "indexed": true,
          "internalType": "address",
          "name": "operator",
          "type": "address"
        },
        {
          "indexed": false,
          "internalType": "bool",
          "name": "approved",
          "type": "bool"
        }
      ],
      "name": "ApprovalForAll",
      "type": "event"
    },
    {
      "anonymous": false,
      "inputs": [
        {
          "indexed": true,
          "internalType": "address",
          "name": "previousOwner",
          "type": "address"
        },
        {
          "indexed": true,
          "internalType": "address",
          "name": "newOwner",
          "type": "address"
        }
      ],
      "name": "OwnershipTransferred",
      "type": "event"
    },
    {
      "anonymous": false,
      "inputs": [
        {
          "indexed": true,
          "internalType": "address",
          "name": "from",
          "type": "address"
        },
        {
          "indexed": true,
          "internalType": "address",
          "name": "to",
          "type": "address"
        },
        {
          "indexed": true,
          "internalType": "uint256",
          "name": "tokenId",
          "type": "uint256"
        }
      ],
      "name": "Transfer",
      "type": "event"
    },
    {
      "inputs": [
        {
          "internalType": "address",
          "name": "to",
          "type": "address"
        },
        {
          "internalType": "uint256",
          "name": "tokenId",
          "type": "uint256"
        }
      ],
      "name": "approve",
      "outputs": [],
      "stateMutability": "nonpayable",
      "type": "function"
    },
    {
      "inputs": [
        {
          "internalType": "address",
          "name": "owner",
          "type": "address"
        }
      ],
      "name": "balanceOf",
      "outputs": [
        {
          "internalType": "uint256",
          "name": "",
          "type": "uint256"
        }
      ],
      "stateMutability": "view",
      "type": "function"
    },
    {
      "inputs": [],
      "name": "baseURI",
      "outputs": [
        {
          "internalType": "string",
          "name": "",
          "type": "string"
        }
      ],
      "stateMutability": "view",
      "type": "function"
    },
    {
      "inputs": [
        {
          "internalType": "uint256",
          "name": "tokenId",
          "type": "uint256"
        }
      ],
      "name": "getApproved",
      "outputs": [
        {
          "internalType": "address",
          "name": "",
          "type": "address"
        }
      ],
      "stateMutability": "view",
      "type": "function"
    },
    {
      "inputs": [
        {
          "internalType": "address",
          "name": "_owner",
          "type": "address"
        }
      ],
      "name": "getTokens",
      "outputs": [
        {
          "components": [
            {
              "internalType": "uint256",
              "name": "id",
              "type": "uint256"
            },
            {
              "internalType": "string",
              "name": "url",
              "type": "string"
            }
          ],
          "internalType": "struct NFTWinnerTicket.NFTStruct[]",
          "name": "ownerTokens",
          "type": "tuple[]"
        }
      ],
      "stateMutability": "view",
      "type": "function"
    },
    {
      "inputs": [
        {
          "internalType": "address",
          "name": "owner",
          "type": "address"
        },
        {
          "internalType": "address",
          "name": "operator",
          "type": "address"
        }
      ],
      "name": "isApprovedForAll",
      "outputs": [
        {
          "internalType": "bool",
          "name": "",
          "type": "bool"
        }
      ],
      "stateMutability": "view",
      "type": "function"
    },
    {
      "inputs": [],
      "name": "lotteryAddress",
      "outputs": [
        {
          "internalType": "address",
          "name": "",
          "type": "address"
        }
      ],
      "stateMutability": "view",
      "type": "function"
    },
    {
      "inputs": [],
      "name": "name",
      "outputs": [
        {
          "internalType": "string",
          "name": "",
          "type": "string"
        }
      ],
      "stateMutability": "view",
      "type": "function"
    },
    {
      "inputs": [],
      "name": "owner",
      "outputs": [
        {
          "internalType": "address",
          "name": "",
          "type": "address"
        }
      ],
      "stateMutability": "view",
      "type": "function"
    },
    {
      "inputs": [
        {
          "internalType": "uint256",
          "name": "tokenId",
          "type": "uint256"
        }
      ],
      "name": "ownerOf",
      "outputs": [
        {
          "internalType": "address",
          "name": "",
          "type": "address"
        }
      ],
      "stateMutability": "view",
      "type": "function"
    },
    {
      "inputs": [],
      "name": "renounceOwnership",
      "outputs": [],
      "stateMutability": "nonpayable",
      "type": "function"
    },
    {
      "inputs": [
        {
          "internalType": "address",
          "name": "from",
          "type": "address"
        },
        {
          "internalType": "address",
          "name": "to",
          "type": "address"
        },
        {
          "internalType": "uint256",
          "name": "tokenId",
          "type": "uint256"
        }
      ],
      "name": "safeTransferFrom",
      "outputs": [],
      "stateMutability": "nonpayable",
      "type": "function"
    },
    {
      "inputs": [
        {
          "internalType": "address",
          "name": "from",
          "type": "address"
        },
        {
          "internalType": "address",
          "name": "to",
          "type": "address"
        },
        {
          "internalType": "uint256",
          "name": "tokenId",
          "type": "uint256"
        },
        {
          "internalType": "bytes",
          "name": "_data",
          "type": "bytes"
        }
      ],
      "name": "safeTransferFrom",
      "outputs": [],
      "stateMutability": "nonpayable",
      "type": "function"
    },
    {
      "inputs": [
        {
          "internalType": "address",
          "name": "_receiver",
          "type": "address"
        }
      ],
      "name": "sendWinnerNFT",
      "outputs": [],
      "stateMutability": "nonpayable",
      "type": "function"
    },
    {
      "inputs": [
        {
          "internalType": "address",
          "name": "operator",
          "type": "address"
        },
        {
          "internalType": "bool",
          "name": "approved",
          "type": "bool"
        }
      ],
      "name": "setApprovalForAll",
      "outputs": [],
      "stateMutability": "nonpayable",
      "type": "function"
    },
    {
      "inputs": [
        {
          "internalType": "address",
          "name": "_lotteryAddress",
          "type": "address"
        }
      ],
      "name": "setLotteryAddress",
      "outputs": [],
      "stateMutability": "nonpayable",
      "type": "function"
    },
    {
      "inputs": [
        {
          "internalType": "bytes4",
          "name": "interfaceId",
          "type": "bytes4"
        }
      ],
      "name": "supportsInterface",
      "outputs": [
        {
          "internalType": "bool",
          "name": "",
          "type": "bool"
        }
      ],
      "stateMutability": "view",
      "type": "function"
    },
    {
      "inputs": [],
      "name": "symbol",
      "outputs": [
        {
          "internalType": "string",
          "name": "",
          "type": "string"
        }
      ],
      "stateMutability": "view",
      "type": "function"
    },
    {
      "inputs": [
        {
          "internalType": "uint256",
          "name": "index",
          "type": "uint256"
        }
      ],
      "name": "tokenByIndex",
      "outputs": [
        {
          "internalType": "uint256",
          "name": "",
          "type": "uint256"
        }
      ],
      "stateMutability": "view",
      "type": "function"
    },
    {
      "inputs": [
        {
          "internalType": "address",
          "name": "owner",
          "type": "address"
        },
        {
          "internalType": "uint256",
          "name": "index",
          "type": "uint256"
        }
      ],
      "name": "tokenOfOwnerByIndex",
      "outputs": [
        {
          "internalType": "uint256",
          "name": "",
          "type": "uint256"
        }
      ],
      "stateMutability": "view",
      "type": "function"
    },
    {
      "inputs": [
        {
          "internalType": "uint256",
          "name": "tokenId",
          "type": "uint256"
        }
      ],
      "name": "tokenURI",
      "outputs": [
        {
          "internalType": "string",
          "name": "",
          "type": "string"
        }
      ],
      "stateMutability": "view",
      "type": "function"
    },
    {
      "inputs": [],
      "name": "totalSupply",
      "outputs": [
        {
          "internalType": "uint256",
          "name": "",
          "type": "uint256"
        }
      ],
      "stateMutability": "view",
      "type": "function"
    },
    {
      "inputs": [
        {
          "internalType": "address",
          "name": "from",
          "type": "address"
        },
        {
          "internalType": "address",
          "name": "to",
          "type": "address"
        },
        {
          "internalType": "uint256",
          "name": "tokenId",
          "type": "uint256"
        }
      ],
      "name": "transferFrom",
      "outputs": [],
      "stateMutability": "nonpayable",
      "type": "function"
    },
    {
      "inputs": [
        {
          "internalType": "address",
          "name": "newOwner",
          "type": "address"
        }
      ],
      "name": "transferOwnership",
      "outputs": [],
      "stateMutability": "nonpayable",
      "type": "function"
    }
  ],
  "bytecode": "0x60806040523480156200001157600080fd5b506040518060400160405280600c81526020017f57696e6e65725469636b657400000000000000000000000000000000000000008152506040518060400160405280600381526020017f57494e0000000000000000000000000000000000000000000000000000000000815250600062000090620001df60201b60201c565b9050806000806101000a81548173ffffffffffffffffffffffffffffffffffffffff021916908373ffffffffffffffffffffffffffffffffffffffff1602179055508073ffffffffffffffffffffffffffffffffffffffff16600073ffffffffffffffffffffffffffffffffffffffff167f8be0079c531659141344cd1fd0a4f28419497f9722a3daafe3b4186f6b6457e060405160405180910390a350620001466301ffc9a760e01b620001e760201b60201c565b81600790805190602001906200015e929190620002d5565b50806008908051906020019062000177929190620002d5565b50620001906380ac58cd60e01b620001e760201b60201c565b620001a8635b5e139f60e01b620001e760201b60201c565b620001c063780e9d6360e01b620001e760201b60201c565b5050620001d9600b620002bf60201b62001b4b1760201c565b620003f9565b600033905090565b63ffffffff60e01b817bffffffffffffffffffffffffffffffffffffffffffffffffffffffff1916141562000253576040517f08c379a00000000000000000000000000000000000000000000000000000000081526004016200024a90620003c6565b60405180910390fd5b6001806000837bffffffffffffffffffffffffffffffffffffffffffffffffffffffff19167bffffffffffffffffffffffffffffffffffffffffffffffffffffffff1916815260200190815260200160002060006101000a81548160ff02191690831515021790555050565b6001816000016000828254019250508190555050565b828054600181600116156101000203166002900490600052602060002090601f016020900481019282601f106200031857805160ff191683800117855562000349565b8280016001018555821562000349579182015b82811115620003485782518255916020019190600101906200032b565b5b5090506200035891906200035c565b5090565b6200038191905b808211156200037d57600081600090555060010162000363565b5090565b90565b600062000393601c83620003e8565b91507f4552433136353a20696e76616c696420696e74657266616365206964000000006000830152602082019050919050565b60006020820190508181036000830152620003e18162000384565b9050919050565b600082825260208201905092915050565b61384380620004096000396000f3fe608060405234801561001057600080fd5b50600436106101585760003560e01c80636352211e116100c3578063a22cb4651161007c578063a22cb465146103db578063b88d4fde146103f7578063c87b56dd14610413578063e985e9c514610443578063ebb7c57914610473578063f2fde38b1461048f57610158565b80636352211e146103175780636c0360eb1461034757806370a0823114610365578063715018a6146103955780638da5cb5b1461039f57806395d89b41146103bd57610158565b80632a332b2a116101155780632a332b2a146102315780632f745c591461024d5780633beedf6d1461027d57806342842e0e1461029b578063450efe21146102b75780634f6ccce7146102e757610158565b806301ffc9a71461015d57806306fdde031461018d578063081812fc146101ab578063095ea7b3146101db57806318160ddd146101f757806323b872dd14610215575b600080fd5b6101776004803603810190610172919061281d565b6104ab565b60405161018491906132b4565b60405180910390f35b610195610513565b6040516101a291906132cf565b60405180910390f35b6101c560048036038101906101c0919061286f565b6105b5565b6040516101d2919061322b565b60405180910390f35b6101f560048036038101906101f091906127e1565b61063a565b005b6101ff610752565b60405161020c9190613571565b60405180910390f35b61022f600480360381019061022a91906126db565b610763565b005b61024b60048036038101906102469190612676565b6107c3565b005b610267600480360381019061026291906127e1565b610883565b6040516102749190613571565b60405180910390f35b6102856108de565b604051610292919061322b565b60405180910390f35b6102b560048036038101906102b091906126db565b610904565b005b6102d160048036038101906102cc9190612676565b610924565b6040516102de9190613292565b60405180910390f35b61030160048036038101906102fc919061286f565b610aa4565b60405161030e9190613571565b60405180910390f35b610331600480360381019061032c919061286f565b610ac7565b60405161033e919061322b565b60405180910390f35b61034f610afe565b60405161035c91906132cf565b60405180910390f35b61037f600480360381019061037a9190612676565b610ba0565b60405161038c9190613571565b60405180910390f35b61039d610c5f565b005b6103a7610d9a565b6040516103b4919061322b565b60405180910390f35b6103c5610dc3565b6040516103d291906132cf565b60405180910390f35b6103f560048036038101906103f091906127a5565b610e65565b005b610411600480360381019061040c919061272a565b610fe6565b005b61042d6004803603810190610428919061286f565b611048565b60405161043a91906132cf565b60405180910390f35b61045d6004803603810190610458919061269f565b6111cb565b60405161046a91906132b4565b60405180910390f35b61048d60048036038101906104889190612676565b61125f565b005b6104a960048036038101906104a49190612676565b611353565b005b600060016000837bffffffffffffffffffffffffffffffffffffffffffffffffffffffff19167bffffffffffffffffffffffffffffffffffffffffffffffffffffffff1916815260200190815260200160002060009054906101000a900460ff169050919050565b606060078054600181600116156101000203166002900480601f0160208091040260200160405190810160405280929190818152602001828054600181600116156101000203166002900480156105ab5780601f10610580576101008083540402835291602001916105ab565b820191906000526020600020905b81548152906001019060200180831161058e57829003601f168201915b5050505050905090565b60006105c0826114fd565b6105ff576040517f08c379a00000000000000000000000000000000000000000000000000000000081526004016105f690613471565b60405180910390fd5b6005600083815260200190815260200160002060009054906101000a900473ffffffffffffffffffffffffffffffffffffffff169050919050565b600061064582610ac7565b90508073ffffffffffffffffffffffffffffffffffffffff168373ffffffffffffffffffffffffffffffffffffffff1614156106b6576040517f08c379a00000000000000000000000000000000000000000000000000000000081526004016106ad906134f1565b60405180910390fd5b8073ffffffffffffffffffffffffffffffffffffffff166106d561151a565b73ffffffffffffffffffffffffffffffffffffffff1614806107045750610703816106fe61151a565b6111cb565b5b610743576040517f08c379a000000000000000000000000000000000000000000000000000000000815260040161073a906133f1565b60405180910390fd5b61074d8383611522565b505050565b600061075e60036115db565b905090565b61077461076e61151a565b826115f0565b6107b3576040517f08c379a00000000000000000000000000000000000000000000000000000000081526004016107aa90613531565b60405180910390fd5b6107be8383836116ce565b505050565b6107cb61151a565b73ffffffffffffffffffffffffffffffffffffffff166107e9610d9a565b73ffffffffffffffffffffffffffffffffffffffff161461083f576040517f08c379a000000000000000000000000000000000000000000000000000000000815260040161083690613491565b60405180910390fd5b80600c60006101000a81548173ffffffffffffffffffffffffffffffffffffffff021916908373ffffffffffffffffffffffffffffffffffffffff16021790555050565b60006108d682600260008673ffffffffffffffffffffffffffffffffffffffff1673ffffffffffffffffffffffffffffffffffffffff1681526020019081526020016000206118e590919063ffffffff16565b905092915050565b600c60009054906101000a900473ffffffffffffffffffffffffffffffffffffffff1681565b61091f83838360405180602001604052806000815250610fe6565b505050565b6060600061093183610ba0565b9050600081141561099757600067ffffffffffffffff8111801561095457600080fd5b5060405190808252806020026020018201604052801561098e57816020015b61097b6124fa565b8152602001906001900390816109735790505b50915050610a9f565b60608167ffffffffffffffff811180156109b057600080fd5b506040519080825280602002602001820160405280156109ea57816020015b6109d76124fa565b8152602001906001900390816109cf5790505b50905060006109f7610752565b90506000600190506000600190505b828111610a96578673ffffffffffffffffffffffffffffffffffffffff16610a2d82610ac7565b73ffffffffffffffffffffffffffffffffffffffff161415610a89576040518060400160405280828152602001610a6384611048565b815250846001840381518110610a7557fe5b602002602001018190525081806001019250505b8080600101915050610a06565b83955050505050505b919050565b600080610abb8360036118ff90919063ffffffff16565b50905080915050919050565b6000610af7826040518060600160405280602981526020016137e560299139600361192e9092919063ffffffff16565b9050919050565b6060600a8054600181600116156101000203166002900480601f016020809104026020016040519081016040528092919081815260200182805460018160011615610100020316600290048015610b965780601f10610b6b57610100808354040283529160200191610b96565b820191906000526020600020905b815481529060010190602001808311610b7957829003601f168201915b5050505050905090565b60008073ffffffffffffffffffffffffffffffffffffffff168273ffffffffffffffffffffffffffffffffffffffff161415610c11576040517f08c379a0000000000000000000000000000000000000000000000000000000008152600401610c0890613411565b60405180910390fd5b610c58600260008473ffffffffffffffffffffffffffffffffffffffff1673ffffffffffffffffffffffffffffffffffffffff16815260200190815260200160002061194d565b9050919050565b610c6761151a565b73ffffffffffffffffffffffffffffffffffffffff16610c85610d9a565b73ffffffffffffffffffffffffffffffffffffffff1614610cdb576040517f08c379a0000000000000000000000000000000000000000000000000000000008152600401610cd290613491565b60405180910390fd5b600073ffffffffffffffffffffffffffffffffffffffff166000809054906101000a900473ffffffffffffffffffffffffffffffffffffffff1673ffffffffffffffffffffffffffffffffffffffff167f8be0079c531659141344cd1fd0a4f28419497f9722a3daafe3b4186f6b6457e060405160405180910390a360008060006101000a81548173ffffffffffffffffffffffffffffffffffffffff021916908373ffffffffffffffffffffffffffffffffffffffff160217905550565b60008060009054906101000a900473ffffffffffffffffffffffffffffffffffffffff16905090565b606060088054600181600116156101000203166002900480601f016020809104026020016040519081016040528092919081815260200182805460018160011615610100020316600290048015610e5b5780601f10610e3057610100808354040283529160200191610e5b565b820191906000526020600020905b815481529060010190602001808311610e3e57829003601f168201915b5050505050905090565b610e6d61151a565b73ffffffffffffffffffffffffffffffffffffffff168273ffffffffffffffffffffffffffffffffffffffff161415610edb576040517f08c379a0000000000000000000000000000000000000000000000000000000008152600401610ed290613391565b60405180910390fd5b8060066000610ee861151a565b73ffffffffffffffffffffffffffffffffffffffff1673ffffffffffffffffffffffffffffffffffffffff16815260200190815260200160002060008473ffffffffffffffffffffffffffffffffffffffff1673ffffffffffffffffffffffffffffffffffffffff16815260200190815260200160002060006101000a81548160ff0219169083151502179055508173ffffffffffffffffffffffffffffffffffffffff16610f9561151a565b73ffffffffffffffffffffffffffffffffffffffff167f17307eab39ab6107e8899845ad3d59bd9653f200f220920489ca2b5937696c3183604051610fda91906132b4565b60405180910390a35050565b610ff7610ff161151a565b836115f0565b611036576040517f08c379a000000000000000000000000000000000000000000000000000000000815260040161102d90613531565b60405180910390fd5b61104284848484611962565b50505050565b6060611053826114fd565b611092576040517f08c379a0000000000000000000000000000000000000000000000000000000008152600401611089906134d1565b60405180910390fd5b6060600960008481526020019081526020016000208054600181600116156101000203166002900480601f01602080910402602001604051908101604052809291908181526020018280546001816001161561010002031660029004801561113b5780601f106111105761010080835404028352916020019161113b565b820191906000526020600020905b81548152906001019060200180831161111e57829003601f168201915b50505050509050606061114c610afe565b90506000815114156111625781925050506111c6565b60008251111561119757808260405160200161117f929190613207565b604051602081830303815290604052925050506111c6565b806111a1856119be565b6040516020016111b2929190613207565b604051602081830303815290604052925050505b919050565b6000600660008473ffffffffffffffffffffffffffffffffffffffff1673ffffffffffffffffffffffffffffffffffffffff16815260200190815260200160002060008373ffffffffffffffffffffffffffffffffffffffff1673ffffffffffffffffffffffffffffffffffffffff16815260200190815260200160002060009054906101000a900460ff16905092915050565b600c60009054906101000a900473ffffffffffffffffffffffffffffffffffffffff1673ffffffffffffffffffffffffffffffffffffffff163373ffffffffffffffffffffffffffffffffffffffff16146112ef576040517f08c379a00000000000000000000000000000000000000000000000000000000081526004016112e690613511565b60405180910390fd5b60006112fb600b611b05565b90506113078282611b13565b6113456040518060400160405280601981526020017f68747470733a2f2f70696373756d2e70686f746f732f32303000000000000000815250611b31565b61134f600b611b4b565b5050565b61135b61151a565b73ffffffffffffffffffffffffffffffffffffffff16611379610d9a565b73ffffffffffffffffffffffffffffffffffffffff16146113cf576040517f08c379a00000000000000000000000000000000000000000000000000000000081526004016113c690613491565b60405180910390fd5b600073ffffffffffffffffffffffffffffffffffffffff168173ffffffffffffffffffffffffffffffffffffffff16141561143f576040517f08c379a000000000000000000000000000000000000000000000000000000000815260040161143690613331565b60405180910390fd5b8073ffffffffffffffffffffffffffffffffffffffff166000809054906101000a900473ffffffffffffffffffffffffffffffffffffffff1673ffffffffffffffffffffffffffffffffffffffff167f8be0079c531659141344cd1fd0a4f28419497f9722a3daafe3b4186f6b6457e060405160405180910390a3806000806101000a81548173ffffffffffffffffffffffffffffffffffffffff021916908373ffffffffffffffffffffffffffffffffffffffff16021790555050565b6000611513826003611b6190919063ffffffff16565b9050919050565b600033905090565b816005600083815260200190815260200160002060006101000a81548173ffffffffffffffffffffffffffffffffffffffff021916908373ffffffffffffffffffffffffffffffffffffffff160217905550808273ffffffffffffffffffffffffffffffffffffffff1661159583610ac7565b73ffffffffffffffffffffffffffffffffffffffff167f8c5be1e5ebec7d5bd14f71427d1e84f3dd0314c0f7b2291e5b200ac8c7c3b92560405160405180910390a45050565b60006115e982600001611b7b565b9050919050565b60006115fb826114fd565b61163a576040517f08c379a0000000000000000000000000000000000000000000000000000000008152600401611631906133d1565b60405180910390fd5b600061164583610ac7565b90508073ffffffffffffffffffffffffffffffffffffffff168473ffffffffffffffffffffffffffffffffffffffff1614806116b457508373ffffffffffffffffffffffffffffffffffffffff1661169c846105b5565b73ffffffffffffffffffffffffffffffffffffffff16145b806116c557506116c481856111cb565b5b91505092915050565b8273ffffffffffffffffffffffffffffffffffffffff166116ee82610ac7565b73ffffffffffffffffffffffffffffffffffffffff1614611744576040517f08c379a000000000000000000000000000000000000000000000000000000000815260040161173b906134b1565b60405180910390fd5b600073ffffffffffffffffffffffffffffffffffffffff168273ffffffffffffffffffffffffffffffffffffffff1614156117b4576040517f08c379a00000000000000000000000000000000000000000000000000000000081526004016117ab90613371565b60405180910390fd5b6117bf838383611b8c565b6117ca600082611522565b61181b81600260008673ffffffffffffffffffffffffffffffffffffffff1673ffffffffffffffffffffffffffffffffffffffff168152602001908152602001600020611b9190919063ffffffff16565b5061186d81600260008573ffffffffffffffffffffffffffffffffffffffff1673ffffffffffffffffffffffffffffffffffffffff168152602001908152602001600020611bab90919063ffffffff16565b5061188481836003611bc59092919063ffffffff16565b50808273ffffffffffffffffffffffffffffffffffffffff168473ffffffffffffffffffffffffffffffffffffffff167fddf252ad1be2c89b69c2b068fc378daa952ba7f163c4a11628f55a4df523b3ef60405160405180910390a4505050565b60006118f48360000183611bfa565b60001c905092915050565b6000806000806119128660000186611c67565b915091508160001c8160001c8090509350935050509250929050565b6000611941846000018460001b84611cea565b60001c90509392505050565b600061195b82600001611d7b565b9050919050565b61196d8484846116ce565b61197984848484611d8c565b6119b8576040517f08c379a00000000000000000000000000000000000000000000000000000000081526004016119af90613311565b60405180910390fd5b50505050565b60606000821415611a06576040518060400160405280600181526020017f30000000000000000000000000000000000000000000000000000000000000008152509050611b00565b600082905060005b60008214611a30578080600101915050600a8281611a2857fe5b049150611a0e565b60608167ffffffffffffffff81118015611a4957600080fd5b506040519080825280601f01601f191660200182016040528015611a7c5781602001600182028036833780820191505090505b50905060006001830390508593505b60008414611af857600a8481611a9d57fe5b0660300160f81b82828060019003935081518110611ab757fe5b60200101907effffffffffffffffffffffffffffffffffffffffffffffffffffffffffffff1916908160001a905350600a8481611af057fe5b049350611a8b565b819450505050505b919050565b600081600001549050919050565b611b2d828260405180602001604052806000815250611ef0565b5050565b80600a9080519060200190611b47929190612514565b5050565b6001816000016000828254019250508190555050565b6000611b73836000018360001b611f4b565b905092915050565b600081600001805490509050919050565b505050565b6000611ba3836000018360001b611f6e565b905092915050565b6000611bbd836000018360001b612056565b905092915050565b6000611bf1846000018460001b8473ffffffffffffffffffffffffffffffffffffffff1660001b6120c6565b90509392505050565b600081836000018054905011611c45576040517f08c379a0000000000000000000000000000000000000000000000000000000008152600401611c3c906132f1565b60405180910390fd5b826000018281548110611c5457fe5b9060005260206000200154905092915050565b60008082846000018054905011611cb3576040517f08c379a0000000000000000000000000000000000000000000000000000000008152600401611caa90613431565b60405180910390fd5b6000846000018481548110611cc457fe5b906000526020600020906002020190508060000154816001015492509250509250929050565b60008084600101600085815260200190815260200160002054905060008114158390611d4c576040517f08c379a0000000000000000000000000000000000000000000000000000000008152600401611d4391906132cf565b60405180910390fd5b50846000016001820381548110611d5f57fe5b9060005260206000209060020201600101549150509392505050565b600081600001805490509050919050565b6000611dad8473ffffffffffffffffffffffffffffffffffffffff166121a2565b611dba5760019050611ee8565b6060611e8163150b7a0260e01b611dcf61151a565b888787604051602401611de59493929190613246565b604051602081830303815290604052907bffffffffffffffffffffffffffffffffffffffffffffffffffffffff19166020820180517bffffffffffffffffffffffffffffffffffffffffffffffffffffffff83818316178352505050506040518060600160405280603281526020016137b3603291398773ffffffffffffffffffffffffffffffffffffffff166121b59092919063ffffffff16565b9050600081806020019051810190611e999190612846565b905063150b7a0260e01b7bffffffffffffffffffffffffffffffffffffffffffffffffffffffff1916817bffffffffffffffffffffffffffffffffffffffffffffffffffffffff191614925050505b949350505050565b611efa83836121cd565b611f076000848484611d8c565b611f46576040517f08c379a0000000000000000000000000000000000000000000000000000000008152600401611f3d90613311565b60405180910390fd5b505050565b600080836001016000848152602001908152602001600020541415905092915050565b6000808360010160008481526020019081526020016000205490506000811461204a5760006001820390506000600186600001805490500390506000866000018281548110611fb957fe5b9060005260206000200154905080876000018481548110611fd657fe5b906000526020600020018190555060018301876001016000838152602001908152602001600020819055508660000180548061200e57fe5b60019003818190600052602060002001600090559055866001016000878152602001908152602001600020600090556001945050505050612050565b60009150505b92915050565b6000612062838361235b565b6120bb5782600001829080600181540180825580915050600190039060005260206000200160009091909190915055826000018054905083600101600084815260200190815260200160002081905550600190506120c0565b600090505b92915050565b600080846001016000858152602001908152602001600020549050600081141561216d5784600001604051806040016040528086815260200185815250908060018154018082558091505060019003906000526020600020906002020160009091909190915060008201518160000155602082015181600101555050846000018054905085600101600086815260200190815260200160002081905550600191505061219b565b8285600001600183038154811061218057fe5b90600052602060002090600202016001018190555060009150505b9392505050565b600080823b905060008111915050919050565b60606121c4848460008561237e565b90509392505050565b600073ffffffffffffffffffffffffffffffffffffffff168273ffffffffffffffffffffffffffffffffffffffff16141561223d576040517f08c379a000000000000000000000000000000000000000000000000000000000815260040161223490613451565b60405180910390fd5b612246816114fd565b15612286576040517f08c379a000000000000000000000000000000000000000000000000000000000815260040161227d90613351565b60405180910390fd5b61229260008383611b8c565b6122e381600260008573ffffffffffffffffffffffffffffffffffffffff1673ffffffffffffffffffffffffffffffffffffffff168152602001908152602001600020611bab90919063ffffffff16565b506122fa81836003611bc59092919063ffffffff16565b50808273ffffffffffffffffffffffffffffffffffffffff16600073ffffffffffffffffffffffffffffffffffffffff167fddf252ad1be2c89b69c2b068fc378daa952ba7f163c4a11628f55a4df523b3ef60405160405180910390a45050565b600080836001016000848152602001908152602001600020541415905092915050565b6060824710156123c3576040517f08c379a00000000000000000000000000000000000000000000000000000000081526004016123ba906133b1565b60405180910390fd5b6123cc856121a2565b61240b576040517f08c379a000000000000000000000000000000000000000000000000000000000815260040161240290613551565b60405180910390fd5b600060608673ffffffffffffffffffffffffffffffffffffffff16858760405161243591906131f0565b60006040518083038185875af1925050503d8060008114612472576040519150601f19603f3d011682016040523d82523d6000602084013e612477565b606091505b5091509150612487828286612493565b92505050949350505050565b606083156124a3578290506124f3565b6000835111156124b65782518084602001fd5b816040517f08c379a00000000000000000000000000000000000000000000000000000000081526004016124ea91906132cf565b60405180910390fd5b9392505050565b604051806040016040528060008152602001606081525090565b828054600181600116156101000203166002900490600052602060002090601f016020900481019282601f1061255557805160ff1916838001178555612583565b82800160010185558215612583579182015b82811115612582578251825591602001919060010190612567565b5b5090506125909190612594565b5090565b6125b691905b808211156125b257600081600090555060010161259a565b5090565b90565b6000813590506125c881613756565b92915050565b6000813590506125dd8161376d565b92915050565b6000813590506125f281613784565b92915050565b60008151905061260781613784565b92915050565b600082601f83011261261e57600080fd5b813561263161262c826135b9565b61358c565b9150808252602083016020830185838301111561264d57600080fd5b612658838284613703565b50505092915050565b6000813590506126708161379b565b92915050565b60006020828403121561268857600080fd5b6000612696848285016125b9565b91505092915050565b600080604083850312156126b257600080fd5b60006126c0858286016125b9565b92505060206126d1858286016125b9565b9150509250929050565b6000806000606084860312156126f057600080fd5b60006126fe868287016125b9565b935050602061270f868287016125b9565b925050604061272086828701612661565b9150509250925092565b6000806000806080858703121561274057600080fd5b600061274e878288016125b9565b945050602061275f878288016125b9565b935050604061277087828801612661565b925050606085013567ffffffffffffffff81111561278d57600080fd5b6127998782880161260d565b91505092959194509250565b600080604083850312156127b857600080fd5b60006127c6858286016125b9565b92505060206127d7858286016125ce565b9150509250929050565b600080604083850312156127f457600080fd5b6000612802858286016125b9565b925050602061281385828601612661565b9150509250929050565b60006020828403121561282f57600080fd5b600061283d848285016125e3565b91505092915050565b60006020828403121561285857600080fd5b6000612866848285016125f8565b91505092915050565b60006020828403121561288157600080fd5b600061288f84828501612661565b91505092915050565b60006128a48383613195565b905092915050565b6128b58161368f565b82525050565b6128c48161367d565b82525050565b60006128d5826135f5565b6128df8185613623565b9350836020820285016128f1856135e5565b8060005b8581101561292d578484038952815161290e8582612898565b945061291983613616565b925060208a019950506001810190506128f5565b50829750879550505050505092915050565b612948816136a1565b82525050565b600061295982613600565b6129638185613634565b9350612973818560208601613712565b61297c81613745565b840191505092915050565b600061299282613600565b61299c8185613645565b93506129ac818560208601613712565b80840191505092915050565b60006129c38261360b565b6129cd8185613650565b93506129dd818560208601613712565b6129e681613745565b840191505092915050565b60006129fc8261360b565b612a068185613661565b9350612a16818560208601613712565b612a1f81613745565b840191505092915050565b6000612a358261360b565b612a3f8185613672565b9350612a4f818560208601613712565b80840191505092915050565b6000612a68602283613661565b91507f456e756d657261626c655365743a20696e646578206f7574206f6620626f756e60008301527f64730000000000000000000000000000000000000000000000000000000000006020830152604082019050919050565b6000612ace603283613661565b91507f4552433732313a207472616e7366657220746f206e6f6e20455243373231526560008301527f63656976657220696d706c656d656e74657200000000000000000000000000006020830152604082019050919050565b6000612b34602683613661565b91507f4f776e61626c653a206e6577206f776e657220697320746865207a65726f206160008301527f64647265737300000000000000000000000000000000000000000000000000006020830152604082019050919050565b6000612b9a601c83613661565b91507f4552433732313a20746f6b656e20616c7265616479206d696e746564000000006000830152602082019050919050565b6000612bda602483613661565b91507f4552433732313a207472616e7366657220746f20746865207a65726f2061646460008301527f72657373000000000000000000000000000000000000000000000000000000006020830152604082019050919050565b6000612c40601983613661565b91507f4552433732313a20617070726f766520746f2063616c6c6572000000000000006000830152602082019050919050565b6000612c80602683613661565b91507f416464726573733a20696e73756666696369656e742062616c616e636520666f60008301527f722063616c6c00000000000000000000000000000000000000000000000000006020830152604082019050919050565b6000612ce6602c83613661565b91507f4552433732313a206f70657261746f7220717565727920666f72206e6f6e657860008301527f697374656e7420746f6b656e00000000000000000000000000000000000000006020830152604082019050919050565b6000612d4c603883613661565b91507f4552433732313a20617070726f76652063616c6c6572206973206e6f74206f7760008301527f6e6572206e6f7220617070726f76656420666f7220616c6c00000000000000006020830152604082019050919050565b6000612db2602a83613661565b91507f4552433732313a2062616c616e636520717565727920666f7220746865207a6560008301527f726f2061646472657373000000000000000000000000000000000000000000006020830152604082019050919050565b6000612e18602283613661565b91507f456e756d657261626c654d61703a20696e646578206f7574206f6620626f756e60008301527f64730000000000000000000000000000000000000000000000000000000000006020830152604082019050919050565b6000612e7e602083613661565b91507f4552433732313a206d696e7420746f20746865207a65726f20616464726573736000830152602082019050919050565b6000612ebe602c83613661565b91507f4552433732313a20617070726f76656420717565727920666f72206e6f6e657860008301527f697374656e7420746f6b656e00000000000000000000000000000000000000006020830152604082019050919050565b6000612f24602083613661565b91507f4f776e61626c653a2063616c6c6572206973206e6f7420746865206f776e65726000830152602082019050919050565b6000612f64602983613661565b91507f4552433732313a207472616e73666572206f6620746f6b656e2074686174206960008301527f73206e6f74206f776e00000000000000000000000000000000000000000000006020830152604082019050919050565b6000612fca602f83613661565b91507f4552433732314d657461646174613a2055524920717565727920666f72206e6f60008301527f6e6578697374656e7420746f6b656e00000000000000000000000000000000006020830152604082019050919050565b6000613030602183613661565b91507f4552433732313a20617070726f76616c20746f2063757272656e74206f776e6560008301527f72000000000000000000000000000000000000000000000000000000000000006020830152604082019050919050565b6000613096603683613661565b91507f546869732066756e6374696f6e206973206f6e6c792063616c6c61626c65206260008301527f7920746865204c6f747465727920636f6e7472616374000000000000000000006020830152604082019050919050565b60006130fc603183613661565b91507f4552433732313a207472616e736665722063616c6c6572206973206e6f74206f60008301527f776e6572206e6f7220617070726f7665640000000000000000000000000000006020830152604082019050919050565b6000613162601d83613661565b91507f416464726573733a2063616c6c20746f206e6f6e2d636f6e74726163740000006000830152602082019050919050565b60006040830160008301516131ad60008601826131d2565b50602083015184820360208601526131c582826129b8565b9150508091505092915050565b6131db816136f9565b82525050565b6131ea816136f9565b82525050565b60006131fc8284612987565b915081905092915050565b60006132138285612a2a565b915061321f8284612a2a565b91508190509392505050565b600060208201905061324060008301846128bb565b92915050565b600060808201905061325b60008301876128ac565b61326860208301866128bb565b61327560408301856131e1565b8181036060830152613287818461294e565b905095945050505050565b600060208201905081810360008301526132ac81846128ca565b905092915050565b60006020820190506132c9600083018461293f565b92915050565b600060208201905081810360008301526132e981846129f1565b905092915050565b6000602082019050818103600083015261330a81612a5b565b9050919050565b6000602082019050818103600083015261332a81612ac1565b9050919050565b6000602082019050818103600083015261334a81612b27565b9050919050565b6000602082019050818103600083015261336a81612b8d565b9050919050565b6000602082019050818103600083015261338a81612bcd565b9050919050565b600060208201905081810360008301526133aa81612c33565b9050919050565b600060208201905081810360008301526133ca81612c73565b9050919050565b600060208201905081810360008301526133ea81612cd9565b9050919050565b6000602082019050818103600083015261340a81612d3f565b9050919050565b6000602082019050818103600083015261342a81612da5565b9050919050565b6000602082019050818103600083015261344a81612e0b565b9050919050565b6000602082019050818103600083015261346a81612e71565b9050919050565b6000602082019050818103600083015261348a81612eb1565b9050919050565b600060208201905081810360008301526134aa81612f17565b9050919050565b600060208201905081810360008301526134ca81612f57565b9050919050565b600060208201905081810360008301526134ea81612fbd565b9050919050565b6000602082019050818103600083015261350a81613023565b9050919050565b6000602082019050818103600083015261352a81613089565b9050919050565b6000602082019050818103600083015261354a816130ef565b9050919050565b6000602082019050818103600083015261356a81613155565b9050919050565b600060208201905061358660008301846131e1565b92915050565b6000604051905081810181811067ffffffffffffffff821117156135af57600080fd5b8060405250919050565b600067ffffffffffffffff8211156135d057600080fd5b601f19601f8301169050602081019050919050565b6000819050602082019050919050565b600081519050919050565b600081519050919050565b600081519050919050565b6000602082019050919050565b600082825260208201905092915050565b600082825260208201905092915050565b600081905092915050565b600082825260208201905092915050565b600082825260208201905092915050565b600081905092915050565b6000613688826136d9565b9050919050565b600061369a826136d9565b9050919050565b60008115159050919050565b60007fffffffff0000000000000000000000000000000000000000000000000000000082169050919050565b600073ffffffffffffffffffffffffffffffffffffffff82169050919050565b6000819050919050565b82818337600083830152505050565b60005b83811015613730578082015181840152602081019050613715565b8381111561373f576000848401525b50505050565b6000601f19601f8301169050919050565b61375f8161367d565b811461376a57600080fd5b50565b613776816136a1565b811461378157600080fd5b50565b61378d816136ad565b811461379857600080fd5b50565b6137a4816136f9565b81146137af57600080fd5b5056fe4552433732313a207472616e7366657220746f206e6f6e20455243373231526563656976657220696d706c656d656e7465724552433732313a206f776e657220717565727920666f72206e6f6e6578697374656e7420746f6b656ea2646970667358221220c41c16e0a191d863c1506d5a9f1223df6d29f60b302ee37a14a7ab01b0ad078c64736f6c63430006050033",
  "linkReferences": {},
  "deployedLinkReferences": {}
}